{
  "transactions": [
    {
      "hash": "0x222ee58dd488730fd52c65a303402d61a099b8d7681c0c12d95d0a462272268d",
      "transactionType": "CREATE",
      "contractName": "MockERC20",
      "contractAddress": "0x22b054128aef0643149af8b0cd77da123c70b3c8",
      "function": null,
      "arguments": null,
      "transaction": {
        "from": "0xafbd210c60dd651892a61804a989eef7bd63cba0",
        "gas": "0x88ecc",
        "value": "0x0",
        "input": "0x60806040523461010e576100135f54610112565b601f81116100c7575b507f4d6f636b20546f6b656e000000000000000000000000000000000000000000145f5560015461004c90610112565b601f811161007f575b6008634d4f434b60e01b016001556002805460ff1916601217905560405161058b908161014b8239f35b60015f52601f0160051c7fb10e2d527612073b26eecdfd717e6a320cf44b4afac2b0732d9fcbe2b7fa0cf6908101905b8181106100bc5750610055565b5f81556001016100af565b5f8052601f0160051c7f290decd9548b62a8d60345a988386fc84ba6bc95484008f6362f93160ef3e563908101905b818110610103575061001c565b5f81556001016100f6565b5f80fd5b90600182811c92168015610140575b602083101461012c57565b634e487b7160e01b5f52602260045260245ffd5b91607f169161012156fe60806040526004361015610011575f80fd5b5f3560e01c806306fdde0314610415578063095ea7b3146103f057806318160ddd146103d357806323b872dd14610319578063313ce567146102f957806340c10f191461027f57806370a082311461024757806395d89b41146101295763a9059cbb1461007c575f80fd5b3461012557604036600319011261012557610095610511565b60243590335f5260046020528160405f20541015610107575b60018060a01b031690815f52600460205260405f206100ce828254610548565b90556040519081527fddf252ad1be2c89b69c2b068fc378daa952ba7f163c4a11628f55a4df523b3ef60203392a3602060405160018152f35b335f52600460205260405f2061011e838254610527565b90556100ae565b5f80fd5b34610125575f366003190112610125576040515f6001548060011c9060018116801561023d575b6020831081146102295782855290811561020d57506001146101b7575b50819003601f01601f191681019067ffffffffffffffff8211818310176101a3576040829052819061019f90826104e7565b0390f35b634e487b7160e01b5f52604160045260245ffd5b60015f9081529091507fb10e2d527612073b26eecdfd717e6a320cf44b4afac2b0732d9fcbe2b7fa0cf65b8282106101f75750602091508201018261016d565b60018160209254838588010152019101906101e2565b90506020925060ff191682840152151560051b8201018261016d565b634e487b7160e01b5f52602260045260245ffd5b91607f1691610150565b34610125576020366003190112610125576001600160a01b03610268610511565b165f526004602052602060405f2054604051908152f35b3461012557604036600319011261012557610298610511565b5f7fddf252ad1be2c89b69c2b068fc378daa952ba7f163c4a11628f55a4df523b3ef60206024359360018060a01b03169384845260048252604084206102df828254610548565b90556102ed81600354610548565b600355604051908152a3005b34610125575f36600319011261012557602060ff60025416604051908152f35b3461012557606036600319011261012557610332610511565b6024356001600160a01b0381169190829003610125577fddf252ad1be2c89b69c2b068fc378daa952ba7f163c4a11628f55a4df523b3ef60206044359260018060a01b031692835f52600482528060405f205410156103b6575b845f526004825260405f206103a2828254610548565b9055604051908152a3602060405160018152f35b835f526004825260405f206103cc828254610527565b905561038c565b34610125575f366003190112610125576020600354604051908152f35b3461012557604036600319011261012557610409610511565b50602060405160018152f35b34610125575f366003190112610125576040515f5f548060011c906001811680156104dd575b6020831081146102295782855290811561020d57506001146104895750819003601f01601f191681019067ffffffffffffffff8211818310176101a3576040829052819061019f90826104e7565b5f8080529091507f290decd9548b62a8d60345a988386fc84ba6bc95484008f6362f93160ef3e5635b8282106104c75750602091508201018261016d565b60018160209254838588010152019101906104b2565b91607f169161043b565b602060409281835280519182918282860152018484015e5f828201840152601f01601f1916010190565b600435906001600160a01b038216820361012557565b9190820391821161053457565b634e487b7160e01b5f52601160045260245ffd5b919082018092116105345756fea26469706673582212203e9fcbb52ccc1f838864d95890cfd9fc439e08328faba184f079c8fd334352fb64736f6c634300081e0033",
        "nonce": "0x2",
        "chainId": "0xa4ec"
      },
      "additionalContracts": [],
      "isFixedGasLimit": false
    },
    {
      "hash": "0x7d63e1f6cd809d0e1ae7465383eb3d710db679aced40022ecb4eb5211092fef5",
      "transactionType": "CALL",
      "contractName": "MockERC20",
      "contractAddress": "0x22b054128aef0643149af8b0cd77da123c70b3c8",
      "function": "mint(address,uint256)",
      "arguments": [
        "0xafBD210c60dD651892a61804A989eEF7bD63CBA0",
        "1000000000000000000000000000"
      ],
      "transaction": {
        "from": "0xafbd210c60dd651892a61804a989eef7bd63cba0",
        "to": "0x22b054128aef0643149af8b0cd77da123c70b3c8",
        "gas": "0x16fe7",
        "value": "0x0",
        "input": "0x40c10f19000000000000000000000000afbd210c60dd651892a61804a989eef7bd63cba00000000000000000000000000000000000000000033b2e3c9fd0803ce8000000",
        "nonce": "0x3",
        "chainId": "0xa4ec"
      },
      "additionalContracts": [],
      "isFixedGasLimit": false
    }
  ],
  "receipts": [
    {
      "status": "0x1",
      "cumulativeGasUsed": "0x17ff7c",
      "logs": [],
      "logsBloom": "0x00000000000000000000000000000000000000000000000000000000000000000000000000000000000000000000000000000000000000000000000000000000000000000000000000000000000000000000000000000000000000000000000000000000000000000000000000000000000000000000000000000000000000000000000000000000000000000000000000000000000000000000000000000000000000000000000000000000000000000000000000000000000000000000000000000000000000000000000000000000000000000000000000000000000000000000000000000000000000000000000000000000000000000000000000000000",
      "type": "0x2",
      "transactionHash": "0x222ee58dd488730fd52c65a303402d61a099b8d7681c0c12d95d0a462272268d",
      "transactionIndex": "0x9",
      "blockHash": "0x3cf2ae395fd76a99f143c95a701a1b641048f0ee85e45d48a081c757b6cca225",
      "blockNumber": "0x3190794",
      "gasUsed": "0x6953b",
      "effectiveGasPrice": "0x5d22cfc3b",
      "from": "0xafbd210c60dd651892a61804a989eef7bd63cba0",
      "to": null,
      "contractAddress": "0x22b054128aef0643149af8b0cd77da123c70b3c8",
      "l1BaseFeeScalar": "0x0",
      "l1BlobBaseFee": "0x1",
      "l1BlobBaseFeeScalar": "0x0",
      "l1Fee": "0x0",
      "l1GasPrice": "0x4f61c3a",
      "l1GasUsed": "0x3f51"
    },
    {
      "status": "0x1",
      "cumulativeGasUsed": "0x1c211c",
      "logs": [
        {
          "address": "0x22b054128aef0643149af8b0cd77da123c70b3c8",
          "topics": [
            "0xddf252ad1be2c89b69c2b068fc378daa952ba7f163c4a11628f55a4df523b3ef",
            "0x0000000000000000000000000000000000000000000000000000000000000000",
            "0x000000000000000000000000afbd210c60dd651892a61804a989eef7bd63cba0"
          ],
          "data": "0x0000000000000000000000000000000000000000033b2e3c9fd0803ce8000000",
          "blockHash": "0x3cf2ae395fd76a99f143c95a701a1b641048f0ee85e45d48a081c757b6cca225",
          "blockNumber": "0x3190794",
          "transactionHash": "0x7d63e1f6cd809d0e1ae7465383eb3d710db679aced40022ecb4eb5211092fef5",
          "transactionIndex": "0xb",
          "logIndex": "0x1f",
          "removed": false
        }
      ],
      "logsBloom": "0x04020000000000000000000000000000000000000000000000000000000000000000000000000000000000000000000000000000000000000000000000000000000000000000004000000008000000000000000000000000000000000000000000000000020000000000000000000800000000000000000000004010000000000000000000000000000000000000000000000000000000000000000000000000000000000000000000000000000000000000000000000000000000000000800000000002000000000000000000000000000000000000000000000000000020000000000000000000000000000000000200000000000000000000000000000000",
      "type": "0x2",
      "transactionHash": "0x7d63e1f6cd809d0e1ae7465383eb3d710db679aced40022ecb4eb5211092fef5",
      "transactionIndex": "0xb",
      "blockHash": "0x3cf2ae395fd76a99f143c95a701a1b641048f0ee85e45d48a081c757b6cca225",
      "blockNumber": "0x3190794",
      "gasUsed": "0x10a5c",
      "effectiveGasPrice": "0x5d22cfc3b",
      "from": "0xafbd210c60dd651892a61804a989eef7bd63cba0",
      "to": "0x22b054128aef0643149af8b0cd77da123c70b3c8",
      "contractAddress": null,
      "l1BaseFeeScalar": "0x0",
      "l1BlobBaseFee": "0x1",
      "l1BlobBaseFeeScalar": "0x0",
      "l1Fee": "0x0",
      "l1GasPrice": "0x4f61c3a",
      "l1GasUsed": "0x640"
    }
  ],
  "libraries": [],
  "pending": [],
  "returns": {},
  "timestamp": 1763872763569,
  "chain": 42220,
  "commit": "e6a6298"
}